{
  "contractName": "Access",
  "abi": [
    {
      "inputs": [
        {
          "internalType": "address",
          "name": "_contract",
          "type": "address"
        }
      ],
      "stateMutability": "nonpayable",
      "type": "constructor"
    },
    {
      "inputs": [],
      "name": "MultiSigContract",
      "outputs": [
        {
          "internalType": "address",
          "name": "",
          "type": "address"
        }
      ],
      "stateMutability": "view",
      "type": "function",
      "constant": true
    },
    {
      "inputs": [],
      "name": "admin",
      "outputs": [
        {
          "internalType": "address",
          "name": "",
          "type": "address"
        }
      ],
      "stateMutability": "view",
      "type": "function",
      "constant": true
    },
    {
      "inputs": [
        {
          "internalType": "address",
          "name": "",
          "type": "address"
        }
      ],
      "name": "isSignatories",
      "outputs": [
        {
          "internalType": "bool",
          "name": "",
          "type": "bool"
        }
      ],
      "stateMutability": "view",
      "type": "function",
      "constant": true
    },
    {
      "inputs": [],
      "name": "getSignatories",
      "outputs": [
        {
          "internalType": "address[]",
          "name": "",
          "type": "address[]"
        }
      ],
      "stateMutability": "view",
      "type": "function",
      "constant": true
    },
    {
      "inputs": [
        {
          "internalType": "address",
          "name": "_add",
          "type": "address"
        }
      ],
      "name": "getIsSignatories",
      "outputs": [
        {
          "internalType": "bool",
          "name": "",
          "type": "bool"
        }
      ],
      "stateMutability": "view",
      "type": "function",
      "constant": true
    },
    {
      "inputs": [
        {
          "internalType": "address",
          "name": "_add",
          "type": "address"
        }
      ],
      "name": "addSignatories",
      "outputs": [],
      "stateMutability": "nonpayable",
      "type": "function"
    },
    {
      "inputs": [
        {
          "internalType": "address",
          "name": "_add",
          "type": "address"
        }
      ],
      "name": "revokeAccess",
      "outputs": [],
      "stateMutability": "nonpayable",
      "type": "function"
    },
    {
      "inputs": [],
      "name": "renounceAccess",
      "outputs": [],
      "stateMutability": "nonpayable",
      "type": "function"
    },
    {
      "inputs": [
        {
          "internalType": "address",
          "name": "_transferTo",
          "type": "address"
        }
      ],
      "name": "transferAccess",
      "outputs": [],
      "stateMutability": "nonpayable",
      "type": "function"
    }
  ],
  "bytecode": "0x60806040523480156200001157600080fd5b506040516200160f3803806200160f833981810160405281019062000037919062000225565b336000806101000a81548173ffffffffffffffffffffffffffffffffffffffff021916908373ffffffffffffffffffffffffffffffffffffffff160217905550600160008054906101000a900473ffffffffffffffffffffffffffffffffffffffff169080600181540180825580915050600190039060005260206000200160009091909190916101000a81548173ffffffffffffffffffffffffffffffffffffffff021916908373ffffffffffffffffffffffffffffffffffffffff1602179055506001600260008060009054906101000a900473ffffffffffffffffffffffffffffffffffffffff1673ffffffffffffffffffffffffffffffffffffffff1673ffffffffffffffffffffffffffffffffffffffff16815260200190815260200160002060006101000a81548160ff02191690831515021790555080600360006101000a81548173ffffffffffffffffffffffffffffffffffffffff021916908373ffffffffffffffffffffffffffffffffffffffff1602179055505062000257565b600080fd5b600073ffffffffffffffffffffffffffffffffffffffff82169050919050565b6000620001ed82620001c0565b9050919050565b620001ff81620001e0565b81146200020b57600080fd5b50565b6000815190506200021f81620001f4565b92915050565b6000602082840312156200023e576200023d620001bb565b5b60006200024e848285016200020e565b91505092915050565b6113a880620002676000396000f3fe608060405234801561001057600080fd5b50600436106100935760003560e01c806385e685311161006657806385e6853114610130578063906685b51461014c578063b44cf5cf1461016a578063ccbf283814610174578063f851a4401461019257610093565b8063237e942b1461009857806329685da6146100b457806363889701146100e457806366e759ee14610114575b600080fd5b6100b260048036038101906100ad9190610dd9565b6101b0565b005b6100ce60048036038101906100c99190610dd9565b610389565b6040516100db9190610e21565b60405180910390f35b6100fe60048036038101906100f99190610dd9565b6104c3565b60405161010b9190610e21565b60405180910390f35b61012e60048036038101906101299190610dd9565b6104e3565b005b61014a60048036038101906101459190610dd9565b6107a3565b005b610154610918565b6040516101619190610efa565b60405180910390f35b610172610a8a565b005b61017c610d2c565b6040516101899190610f2b565b60405180910390f35b61019a610d52565b6040516101a79190610f2b565b60405180910390f35b60008054906101000a900473ffffffffffffffffffffffffffffffffffffffff1673ffffffffffffffffffffffffffffffffffffffff163373ffffffffffffffffffffffffffffffffffffffff161461023e576040517f08c379a000000000000000000000000000000000000000000000000000000000815260040161023590610fa3565b60405180910390fd5b600260008273ffffffffffffffffffffffffffffffffffffffff1673ffffffffffffffffffffffffffffffffffffffff16815260200190815260200160002060009054906101000a900460ff16156102cb576040517f08c379a00000000000000000000000000000000000000000000000000000000081526004016102c29061100f565b60405180910390fd5b6001819080600181540180825580915050600190039060005260206000200160009091909190916101000a81548173ffffffffffffffffffffffffffffffffffffffff021916908373ffffffffffffffffffffffffffffffffffffffff1602179055506001600260008373ffffffffffffffffffffffffffffffffffffffff1673ffffffffffffffffffffffffffffffffffffffff16815260200190815260200160002060006101000a81548160ff02191690831515021790555050565b6000600360009054906101000a900473ffffffffffffffffffffffffffffffffffffffff1673ffffffffffffffffffffffffffffffffffffffff163373ffffffffffffffffffffffffffffffffffffffff1614806104305750600260003373ffffffffffffffffffffffffffffffffffffffff1673ffffffffffffffffffffffffffffffffffffffff16815260200190815260200160002060009054906101000a900460ff165b61046f576040517f08c379a0000000000000000000000000000000000000000000000000000000008152600401610466906110a1565b60405180910390fd5b600260008373ffffffffffffffffffffffffffffffffffffffff1673ffffffffffffffffffffffffffffffffffffffff16815260200190815260200160002060009054906101000a900460ff169050919050565b60026020528060005260406000206000915054906101000a900460ff1681565b33600260008273ffffffffffffffffffffffffffffffffffffffff1673ffffffffffffffffffffffffffffffffffffffff16815260200190815260200160002060009054906101000a900460ff16610570576040517f08c379a00000000000000000000000000000000000000000000000000000000081526004016105679061110d565b60405180910390fd5b600260008373ffffffffffffffffffffffffffffffffffffffff1673ffffffffffffffffffffffffffffffffffffffff16815260200190815260200160002060009054906101000a900460ff166105fc576040517f08c379a00000000000000000000000000000000000000000000000000000000081526004016105f390611179565b60405180910390fd5b60005b6001805490508110156106ee573373ffffffffffffffffffffffffffffffffffffffff166001828154811061063757610636611199565b5b9060005260206000200160009054906101000a900473ffffffffffffffffffffffffffffffffffffffff1673ffffffffffffffffffffffffffffffffffffffff16036106db57826001828154811061069257610691611199565b5b9060005260206000200160006101000a81548173ffffffffffffffffffffffffffffffffffffffff021916908373ffffffffffffffffffffffffffffffffffffffff1602179055505b80806106e690611201565b9150506105ff565b506000600260003373ffffffffffffffffffffffffffffffffffffffff1673ffffffffffffffffffffffffffffffffffffffff16815260200190815260200160002060006101000a81548160ff0219169083151502179055506001600260008473ffffffffffffffffffffffffffffffffffffffff1673ffffffffffffffffffffffffffffffffffffffff16815260200190815260200160002060006101000a81548160ff0219169083151502179055505050565b60008054906101000a900473ffffffffffffffffffffffffffffffffffffffff1673ffffffffffffffffffffffffffffffffffffffff163373ffffffffffffffffffffffffffffffffffffffff1614610831576040517f08c379a000000000000000000000000000000000000000000000000000000000815260040161082890610fa3565b60405180910390fd5b600260008273ffffffffffffffffffffffffffffffffffffffff1673ffffffffffffffffffffffffffffffffffffffff16815260200190815260200160002060009054906101000a900460ff166108bd576040517f08c379a00000000000000000000000000000000000000000000000000000000081526004016108b4906112bb565b60405180910390fd5b6000600260008373ffffffffffffffffffffffffffffffffffffffff1673ffffffffffffffffffffffffffffffffffffffff16815260200190815260200160002060006101000a81548160ff02191690831515021790555050565b6060600360009054906101000a900473ffffffffffffffffffffffffffffffffffffffff1673ffffffffffffffffffffffffffffffffffffffff163373ffffffffffffffffffffffffffffffffffffffff1614806109bf5750600260003373ffffffffffffffffffffffffffffffffffffffff1673ffffffffffffffffffffffffffffffffffffffff16815260200190815260200160002060009054906101000a900460ff165b6109fe576040517f08c379a00000000000000000000000000000000000000000000000000000000081526004016109f5906110a1565b60405180910390fd5b6001805480602002602001604051908101604052809291908181526020018280548015610a8057602002820191906000526020600020905b8160009054906101000a900473ffffffffffffffffffffffffffffffffffffffff1673ffffffffffffffffffffffffffffffffffffffff1681526020019060010190808311610a36575b5050505050905090565b33600260008273ffffffffffffffffffffffffffffffffffffffff1673ffffffffffffffffffffffffffffffffffffffff16815260200190815260200160002060009054906101000a900460ff16610b17576040517f08c379a0000000000000000000000000000000000000000000000000000000008152600401610b0e9061110d565b60405180910390fd5b6000805b600180549050811015610bb0573373ffffffffffffffffffffffffffffffffffffffff1660018281548110610b5357610b52611199565b5b9060005260206000200160009054906101000a900473ffffffffffffffffffffffffffffffffffffffff1673ffffffffffffffffffffffffffffffffffffffff1603610b9d578091505b8080610ba890611201565b915050610b1b565b5060008190505b60018080549050610bc891906112db565b811015610c885760018082610bdd919061130f565b81548110610bee57610bed611199565b5b9060005260206000200160009054906101000a900473ffffffffffffffffffffffffffffffffffffffff1660018281548110610c2d57610c2c611199565b5b9060005260206000200160006101000a81548173ffffffffffffffffffffffffffffffffffffffff021916908373ffffffffffffffffffffffffffffffffffffffff1602179055508080610c8090611201565b915050610bb7565b506001805480610c9b57610c9a611343565b5b6001900381819060005260206000200160006101000a81549073ffffffffffffffffffffffffffffffffffffffff021916905590556000600260003373ffffffffffffffffffffffffffffffffffffffff1673ffffffffffffffffffffffffffffffffffffffff16815260200190815260200160002060006101000a81548160ff0219169083151502179055505050565b600360009054906101000a900473ffffffffffffffffffffffffffffffffffffffff1681565b60008054906101000a900473ffffffffffffffffffffffffffffffffffffffff1681565b600080fd5b600073ffffffffffffffffffffffffffffffffffffffff82169050919050565b6000610da682610d7b565b9050919050565b610db681610d9b565b8114610dc157600080fd5b50565b600081359050610dd381610dad565b92915050565b600060208284031215610def57610dee610d76565b5b6000610dfd84828501610dc4565b91505092915050565b60008115159050919050565b610e1b81610e06565b82525050565b6000602082019050610e366000830184610e12565b92915050565b600081519050919050565b600082825260208201905092915050565b6000819050602082019050919050565b610e7181610d9b565b82525050565b6000610e838383610e68565b60208301905092915050565b6000602082019050919050565b6000610ea782610e3c565b610eb18185610e47565b9350610ebc83610e58565b8060005b83811015610eed578151610ed48882610e77565b9750610edf83610e8f565b925050600181019050610ec0565b5085935050505092915050565b60006020820190508181036000830152610f148184610e9c565b905092915050565b610f2581610d9b565b82525050565b6000602082019050610f406000830184610f1c565b92915050565b600082825260208201905092915050565b7f4f6e6c792041646d696e20486173204163636573730000000000000000000000600082015250565b6000610f8d601583610f46565b9150610f9882610f57565b602082019050919050565b60006020820190508181036000830152610fbc81610f80565b9050919050565b7f416c7265647920616d6f6e67205369676e61746f726965732000000000000000600082015250565b6000610ff9601983610f46565b915061100482610fc3565b602082019050919050565b6000602082019050818103600083015261102881610fec565b9050919050565b7f4f6e6c79204d756c7469536967436f6e747261637420616e64205369676e617460008201527f6f72696573206861766520416363657373000000000000000000000000000000602082015250565b600061108b603183610f46565b91506110968261102f565b604082019050919050565b600060208201905081810360008301526110ba8161107e565b9050919050565b7f596f7520617265206e6f7420616d6f6e67205369676e61746f72696573000000600082015250565b60006110f7601d83610f46565b9150611102826110c1565b602082019050919050565b60006020820190508181036000830152611126816110ea565b9050919050565b7f416c726561647920616d6f6e67207369676e61746f7269657300000000000000600082015250565b6000611163601983610f46565b915061116e8261112d565b602082019050919050565b6000602082019050818103600083015261119281611156565b9050919050565b7f4e487b7100000000000000000000000000000000000000000000000000000000600052603260045260246000fd5b7f4e487b7100000000000000000000000000000000000000000000000000000000600052601160045260246000fd5b6000819050919050565b600061120c826111f7565b91507fffffffffffffffffffffffffffffffffffffffffffffffffffffffffffffffff820361123e5761123d6111c8565b5b600182019050919050565b7f416c7265616479207265766f6b6564206f72204e6f7420616d6f6e672053696760008201527f6e61746f72696573000000000000000000000000000000000000000000000000602082015250565b60006112a5602883610f46565b91506112b082611249565b604082019050919050565b600060208201905081810360008301526112d481611298565b9050919050565b60006112e6826111f7565b91506112f1836111f7565b9250828203905081811115611309576113086111c8565b5b92915050565b600061131a826111f7565b9150611325836111f7565b925082820190508082111561133d5761133c6111c8565b5b92915050565b7f4e487b7100000000000000000000000000000000000000000000000000000000600052603160045260246000fdfea2646970667358221220369ad4408255215fd9be2efe3ff1c7998affff8ba38450a84e01c8b2366510da64736f6c63430008110033",
  "immutableReferences": {},
  "source": "// SPDX-License-Identifier: MIT\r\npragma solidity ^0.8.0;\r\n\r\ncontract Access{\r\n    address public admin;\r\n    address[] signatories;\r\n    mapping (address=>bool) public isSignatories;\r\n    address public MultiSigContract;\r\n\r\n    constructor(address _contract){\r\n        admin=msg.sender;\r\n        signatories.push(admin);\r\n        isSignatories[admin]=true;\r\n        MultiSigContract =_contract;\r\n    }\r\n    modifier onlyContractOrIsSignatories(){\r\n        require(msg.sender==MultiSigContract || isSignatories[msg.sender],\"Only MultiSigContract and Signatories have Access\");\r\n        _;\r\n    }\r\n    modifier onlyAdmin(){\r\n        require(msg.sender==admin,\"Only Admin Has Access\");\r\n        _;\r\n    }\r\n    modifier onlySignatories(address _add){\r\n        require(isSignatories[_add],\"You are not among Signatories\");\r\n        _;\r\n    }\r\n    function getSignatories()external onlyContractOrIsSignatories  view returns(address[] memory) {\r\n        return signatories;\r\n    }\r\n    function getIsSignatories(address _add)external onlyContractOrIsSignatories view returns(bool) {\r\n        return isSignatories[_add];\r\n    }\r\n    function addSignatories(address _add)external onlyAdmin{\r\n        require(!isSignatories[_add],\"Alredy among Signatories \");\r\n        signatories.push(_add);\r\n        isSignatories[_add]=true;\r\n    }\r\n\r\n    function revokeAccess(address _add)external onlyAdmin{\r\n        require(isSignatories[_add],\"Already revoked or Not among Signatories\");\r\n        isSignatories[_add]=false;\r\n    }\r\n\r\n    function renounceAccess()external onlySignatories(msg.sender){\r\n        uint index;\r\n        for(uint i;i<signatories.length;i++){\r\n            if(signatories[i]==msg.sender){\r\n                index=i;\r\n            }\r\n        }\r\n        for(uint j=index;j<signatories.length-1;j++){\r\n            signatories[j]=signatories[j+1];\r\n        }\r\n        signatories.pop();\r\n        isSignatories[msg.sender]=false;\r\n    }\r\n\r\n    function transferAccess(address _transferTo) external  onlySignatories(msg.sender){\r\n        require(isSignatories[_transferTo],\"Already among signatories\");\r\n        for(uint i;i<signatories.length;i++){\r\n            if(signatories[i]==msg.sender){\r\n                signatories[i]=_transferTo;\r\n            }\r\n        }\r\n        isSignatories[msg.sender]=false;\r\n        isSignatories[_transferTo]=true;\r\n    }\r\n}",
  "sourcePath": "D:\\Hashstack\\contracts\\Access.sol",
  "compiler": {
    "name": "solc",
    "version": "0.8.17+commit.8df45f5f.Emscripten.clang"
  },
  "schemaVersion": "3.4.11",
  "updatedAt": "2022-12-15T14:19:50.710Z",
  "networkType": "ethereum",
  "devdoc": {
    "kind": "dev",
    "methods": {},
    "version": 1
  },
  "userdoc": {
    "kind": "user",
    "methods": {},
    "version": 1
  }
}