{
  "contractName": "MultiSig",
  "abi": [
    {
      "inputs": [
        {
          "internalType": "uint256",
          "name": "",
          "type": "uint256"
        },
        {
          "internalType": "address",
          "name": "",
          "type": "address"
        }
      ],
      "name": "approve",
      "outputs": [
        {
          "internalType": "bool",
          "name": "",
          "type": "bool"
        }
      ],
      "stateMutability": "view",
      "type": "function",
      "constant": true
    },
    {
      "inputs": [],
      "name": "isSignatories",
      "outputs": [
        {
          "internalType": "bool",
          "name": "",
          "type": "bool"
        }
      ],
      "stateMutability": "view",
      "type": "function",
      "constant": true
    },
    {
      "inputs": [
        {
          "internalType": "uint256",
          "name": "",
          "type": "uint256"
        }
      ],
      "name": "transactions",
      "outputs": [
        {
          "internalType": "address",
          "name": "from",
          "type": "address"
        },
        {
          "internalType": "address payable",
          "name": "to",
          "type": "address"
        },
        {
          "internalType": "uint256",
          "name": "value",
          "type": "uint256"
        },
        {
          "internalType": "bool",
          "name": "executed",
          "type": "bool"
        }
      ],
      "stateMutability": "view",
      "type": "function",
      "constant": true
    },
    {
      "stateMutability": "payable",
      "type": "receive",
      "payable": true
    },
    {
      "inputs": [
        {
          "internalType": "address",
          "name": "_add",
          "type": "address"
        }
      ],
      "name": "getContract",
      "outputs": [
        {
          "internalType": "address[]",
          "name": "",
          "type": "address[]"
        }
      ],
      "stateMutability": "nonpayable",
      "type": "function"
    },
    {
      "inputs": [],
      "name": "getSignatories",
      "outputs": [
        {
          "internalType": "address[]",
          "name": "",
          "type": "address[]"
        }
      ],
      "stateMutability": "view",
      "type": "function",
      "constant": true
    },
    {
      "inputs": [],
      "name": "getContractBalance",
      "outputs": [
        {
          "internalType": "uint256",
          "name": "",
          "type": "uint256"
        }
      ],
      "stateMutability": "view",
      "type": "function",
      "constant": true
    },
    {
      "inputs": [
        {
          "internalType": "address payable",
          "name": "_to",
          "type": "address"
        },
        {
          "internalType": "uint256",
          "name": "_value",
          "type": "uint256"
        }
      ],
      "name": "submitTransaction",
      "outputs": [],
      "stateMutability": "nonpayable",
      "type": "function"
    },
    {
      "inputs": [
        {
          "internalType": "uint256",
          "name": "_txId",
          "type": "uint256"
        }
      ],
      "name": "removeTransaction",
      "outputs": [],
      "stateMutability": "nonpayable",
      "type": "function"
    },
    {
      "inputs": [
        {
          "internalType": "uint256",
          "name": "_txId",
          "type": "uint256"
        }
      ],
      "name": "approveTransaction",
      "outputs": [],
      "stateMutability": "nonpayable",
      "type": "function"
    },
    {
      "inputs": [
        {
          "internalType": "uint256",
          "name": "_txId",
          "type": "uint256"
        }
      ],
      "name": "ExecuteTransaction",
      "outputs": [],
      "stateMutability": "nonpayable",
      "type": "function"
    }
  ],
  "bytecode": "0x608060405234801561001057600080fd5b506117de806100206000396000f3fe6080604052600436106100955760003560e01c80636f9fb98a116100595780636f9fb98a14610184578063906685b5146101af5780639ace38c2146101da578063ae30dc3f1461021a578063febe4909146102435761009c565b80630ad1c2fa146100a15780631d43b653146100de578063242232d11461010757806346c3bd1f146101305780635d06222b146101595761009c565b3661009c57005b600080fd5b3480156100ad57600080fd5b506100c860048036038101906100c39190610f83565b610280565b6040516100d5919061106e565b60405180910390f35b3480156100ea57600080fd5b5061010560048036038101906101009190611104565b61046d565b005b34801561011357600080fd5b5061012e60048036038101906101299190611144565b6105a6565b005b34801561013c57600080fd5b5061015760048036038101906101529190611144565b6107c8565b005b34801561016557600080fd5b5061016e6109e8565b60405161017b919061118c565b60405180910390f35b34801561019057600080fd5b506101996109fb565b6040516101a691906111b6565b60405180910390f35b3480156101bb57600080fd5b506101c4610a03565b6040516101d1919061106e565b60405180910390f35b3480156101e657600080fd5b5061020160048036038101906101fc9190611144565b610a91565b60405161021194939291906111ef565b60405180910390f35b34801561022657600080fd5b50610241600480360381019061023c9190611144565b610b1e565b005b34801561024f57600080fd5b5061026a60048036038101906102659190611234565b610e3b565b604051610277919061118c565b60405180910390f35b6060816001806101000a81548173ffffffffffffffffffffffffffffffffffffffff021916908373ffffffffffffffffffffffffffffffffffffffff1602179055508173ffffffffffffffffffffffffffffffffffffffff1663906685b56040518163ffffffff1660e01b8152600401600060405180830381865afa15801561030d573d6000803e3d6000fd5b505050506040513d6000823e3d601f19601f8201168201806040525081019061033691906113e2565b6000908051906020019061034b929190610e6a565b508173ffffffffffffffffffffffffffffffffffffffff166329685da6336040518263ffffffff1660e01b8152600401610385919061142b565b602060405180830381865afa1580156103a2573d6000803e3d6000fd5b505050506040513d601f19601f820116820180604052508101906103c69190611472565b600160006101000a81548160ff021916908315150217905550600080548060200260200160405190810160405280929190818152602001828054801561046157602002820191906000526020600020905b8160009054906101000a900473ffffffffffffffffffffffffffffffffffffffff1673ffffffffffffffffffffffffffffffffffffffff1681526020019060010190808311610417575b50505050509050919050565b600260405180608001604052803373ffffffffffffffffffffffffffffffffffffffff1681526020018473ffffffffffffffffffffffffffffffffffffffff16815260200183815260200160001515815250908060018154018082558091505060019003906000526020600020906004020160009091909190915060008201518160000160006101000a81548173ffffffffffffffffffffffffffffffffffffffff021916908373ffffffffffffffffffffffffffffffffffffffff16021790555060208201518160010160006101000a81548173ffffffffffffffffffffffffffffffffffffffff021916908373ffffffffffffffffffffffffffffffffffffffff1602179055506040820151816002015560608201518160030160006101000a81548160ff02191690831515021790555050505050565b600160009054906101000a900460ff166105f5576040517f08c379a00000000000000000000000000000000000000000000000000000000081526004016105ec906114fc565b60405180910390fd5b80600280549050811061063d576040517f08c379a000000000000000000000000000000000000000000000000000000000815260040161063490611568565b60405180910390fd5b816003600082815260200190815260200160002060003373ffffffffffffffffffffffffffffffffffffffff1673ffffffffffffffffffffffffffffffffffffffff16815260200190815260200160002060009054906101000a900460ff16156106dc576040517f08c379a00000000000000000000000000000000000000000000000000000000081526004016106d3906115d4565b60405180910390fd5b82600281815481106106f1576106f06115f4565b5b906000526020600020906004020160030160009054906101000a900460ff1615610750576040517f08c379a00000000000000000000000000000000000000000000000000000000081526004016107479061166f565b60405180910390fd5b60016003600086815260200190815260200160002060003373ffffffffffffffffffffffffffffffffffffffff1673ffffffffffffffffffffffffffffffffffffffff16815260200190815260200160002060006101000a81548160ff0219169083151502179055506107c284610b1e565b50505050565b600160009054906101000a900460ff16610817576040517f08c379a000000000000000000000000000000000000000000000000000000000815260040161080e906114fc565b60405180910390fd5b806002818154811061082c5761082b6115f4565b5b906000526020600020906004020160030160009054906101000a900460ff161561088b576040517f08c379a00000000000000000000000000000000000000000000000000000000081526004016108829061166f565b60405180910390fd5b6002828154811061089f5761089e6115f4565b5b9060005260206000209060040201600080820160006101000a81549073ffffffffffffffffffffffffffffffffffffffff02191690556001820160006101000a81549073ffffffffffffffffffffffffffffffffffffffff021916905560028201600090556003820160006101000a81549060ff0219169055505060005b6000805490508110156109e3576000600360008581526020019081526020016000206000808481548110610954576109536115f4565b5b9060005260206000200160009054906101000a900473ffffffffffffffffffffffffffffffffffffffff1673ffffffffffffffffffffffffffffffffffffffff1673ffffffffffffffffffffffffffffffffffffffff16815260200190815260200160002060006101000a81548160ff02191690831515021790555080806109db906116be565b91505061091d565b505050565b600160009054906101000a900460ff1681565b600047905090565b60606000805480602002602001604051908101604052809291908181526020018280548015610a8757602002820191906000526020600020905b8160009054906101000a900473ffffffffffffffffffffffffffffffffffffffff1673ffffffffffffffffffffffffffffffffffffffff1681526020019060010190808311610a3d575b5050505050905090565b60028181548110610aa157600080fd5b90600052602060002090600402016000915090508060000160009054906101000a900473ffffffffffffffffffffffffffffffffffffffff16908060010160009054906101000a900473ffffffffffffffffffffffffffffffffffffffff16908060020154908060030160009054906101000a900460ff16905084565b8060028181548110610b3357610b326115f4565b5b906000526020600020906004020160030160009054906101000a900460ff1615610b92576040517f08c379a0000000000000000000000000000000000000000000000000000000008152600401610b899061166f565b60405180910390fd5b6000805b600080549050811015610d455760018054906101000a900473ffffffffffffffffffffffffffffffffffffffff1673ffffffffffffffffffffffffffffffffffffffff166329685da660008381548110610bf357610bf26115f4565b5b9060005260206000200160009054906101000a900473ffffffffffffffffffffffffffffffffffffffff166040518263ffffffff1660e01b8152600401610c3a919061142b565b602060405180830381865afa158015610c57573d6000803e3d6000fd5b505050506040513d601f19601f82011682018060405250810190610c7b9190611472565b8015610d1e5750600360008581526020019081526020016000206000808381548110610caa57610ca96115f4565b5b9060005260206000200160009054906101000a900473ffffffffffffffffffffffffffffffffffffffff1673ffffffffffffffffffffffffffffffffffffffff1673ffffffffffffffffffffffffffffffffffffffff16815260200190815260200160002060009054906101000a900460ff165b15610d32578180610d2e906116be565b9250505b8080610d3d906116be565b915050610b96565b5060008080549050826064610d5a9190611706565b610d649190611777565b9050603c8110610e3557600060028581548110610d8457610d836115f4565b5b906000526020600020906004020190508060010160009054906101000a900473ffffffffffffffffffffffffffffffffffffffff1673ffffffffffffffffffffffffffffffffffffffff166108fc670de0b6b3a76400008360020154610dea9190611706565b9081150290604051600060405180830381858888f19350505050158015610e15573d6000803e3d6000fd5b5060018160030160006101000a81548160ff021916908315150217905550505b50505050565b60036020528160005260406000206020528060005260406000206000915091509054906101000a900460ff1681565b828054828255906000526020600020908101928215610ee3579160200282015b82811115610ee25782518260006101000a81548173ffffffffffffffffffffffffffffffffffffffff021916908373ffffffffffffffffffffffffffffffffffffffff16021790555091602001919060010190610e8a565b5b509050610ef09190610ef4565b5090565b5b80821115610f0d576000816000905550600101610ef5565b5090565b6000604051905090565b600080fd5b600080fd5b600073ffffffffffffffffffffffffffffffffffffffff82169050919050565b6000610f5082610f25565b9050919050565b610f6081610f45565b8114610f6b57600080fd5b50565b600081359050610f7d81610f57565b92915050565b600060208284031215610f9957610f98610f1b565b5b6000610fa784828501610f6e565b91505092915050565b600081519050919050565b600082825260208201905092915050565b6000819050602082019050919050565b610fe581610f45565b82525050565b6000610ff78383610fdc565b60208301905092915050565b6000602082019050919050565b600061101b82610fb0565b6110258185610fbb565b935061103083610fcc565b8060005b838110156110615781516110488882610feb565b975061105383611003565b925050600181019050611034565b5085935050505092915050565b600060208201905081810360008301526110888184611010565b905092915050565b600061109b82610f25565b9050919050565b6110ab81611090565b81146110b657600080fd5b50565b6000813590506110c8816110a2565b92915050565b6000819050919050565b6110e1816110ce565b81146110ec57600080fd5b50565b6000813590506110fe816110d8565b92915050565b6000806040838503121561111b5761111a610f1b565b5b6000611129858286016110b9565b925050602061113a858286016110ef565b9150509250929050565b60006020828403121561115a57611159610f1b565b5b6000611168848285016110ef565b91505092915050565b60008115159050919050565b61118681611171565b82525050565b60006020820190506111a1600083018461117d565b92915050565b6111b0816110ce565b82525050565b60006020820190506111cb60008301846111a7565b92915050565b6111da81610f45565b82525050565b6111e981611090565b82525050565b600060808201905061120460008301876111d1565b61121160208301866111e0565b61121e60408301856111a7565b61122b606083018461117d565b95945050505050565b6000806040838503121561124b5761124a610f1b565b5b6000611259858286016110ef565b925050602061126a85828601610f6e565b9150509250929050565b600080fd5b6000601f19601f8301169050919050565b7f4e487b7100000000000000000000000000000000000000000000000000000000600052604160045260246000fd5b6112c282611279565b810181811067ffffffffffffffff821117156112e1576112e061128a565b5b80604052505050565b60006112f4610f11565b905061130082826112b9565b919050565b600067ffffffffffffffff8211156113205761131f61128a565b5b602082029050602081019050919050565b600080fd5b60008151905061134581610f57565b92915050565b600061135e61135984611305565b6112ea565b9050808382526020820190506020840283018581111561138157611380611331565b5b835b818110156113aa57806113968882611336565b845260208401935050602081019050611383565b5050509392505050565b600082601f8301126113c9576113c8611274565b5b81516113d984826020860161134b565b91505092915050565b6000602082840312156113f8576113f7610f1b565b5b600082015167ffffffffffffffff81111561141657611415610f20565b5b611422848285016113b4565b91505092915050565b600060208201905061144060008301846111d1565b92915050565b61144f81611171565b811461145a57600080fd5b50565b60008151905061146c81611446565b92915050565b60006020828403121561148857611487610f1b565b5b60006114968482850161145d565b91505092915050565b600082825260208201905092915050565b7f596f7520617265206e6f7420616d6f6e67205369676e61746f72696573000000600082015250565b60006114e6601d8361149f565b91506114f1826114b0565b602082019050919050565b60006020820190508181036000830152611515816114d9565b9050919050565b7f5472616e73616374696f6e20646f6573206e6f74206578697374000000000000600082015250565b6000611552601a8361149f565b915061155d8261151c565b602082019050919050565b6000602082019050818103600083015261158181611545565b9050919050565b7f5472616e73616374696f6e20616c726561647920617070726f76656400000000600082015250565b60006115be601c8361149f565b91506115c982611588565b602082019050919050565b600060208201905081810360008301526115ed816115b1565b9050919050565b7f4e487b7100000000000000000000000000000000000000000000000000000000600052603260045260246000fd5b7f5472616e73616374696f6e20616c726561647920657865637574656400000000600082015250565b6000611659601c8361149f565b915061166482611623565b602082019050919050565b600060208201905081810360008301526116888161164c565b9050919050565b7f4e487b7100000000000000000000000000000000000000000000000000000000600052601160045260246000fd5b60006116c9826110ce565b91507fffffffffffffffffffffffffffffffffffffffffffffffffffffffffffffffff82036116fb576116fa61168f565b5b600182019050919050565b6000611711826110ce565b915061171c836110ce565b925082820261172a816110ce565b915082820484148315176117415761174061168f565b5b5092915050565b7f4e487b7100000000000000000000000000000000000000000000000000000000600052601260045260246000fd5b6000611782826110ce565b915061178d836110ce565b92508261179d5761179c611748565b5b82820490509291505056fea2646970667358221220f9193249f082270387480669e257c10b3de0f49644ca2b8c0e8f220b9330e00764736f6c63430008110033",
  "immutableReferences": {},
  "source": "// SPDX-License-Identifier: MIT\r\npragma solidity ^0.8.0;\r\n\r\ninterface IAccess {\r\n    function getSignatories() external view returns(address[] memory);\r\n    function getIsSignatories(address _add) external view returns(bool);\r\n}\r\n\r\ncontract MultiSig{\r\n    address[] signatories;\r\n    bool public isSignatories;\r\n    address AccessContract;\r\n    struct transaction{\r\n        address from;\r\n        address payable to;\r\n        uint value;\r\n        bool executed;\r\n    }\r\n    transaction[] public transactions;\r\n    mapping(uint=>mapping(address=>bool))public approve;\r\n    receive() external payable {}\r\n    function getContract(address _add) public returns (address[] memory){\r\n        AccessContract=_add;\r\n       signatories= IAccess(_add).getSignatories();\r\n       isSignatories=IAccess(_add).getIsSignatories(msg.sender);\r\n       return signatories;\r\n    }\r\n    function getSignatories()public view returns (address[] memory){\r\n        return signatories;\r\n    }\r\n    modifier onlySignatories(){\r\n        require(isSignatories,\"You are not among Signatories\");\r\n        _;\r\n    }\r\n\r\n\r\n    modifier txExists(uint _txId){\r\n        require(_txId<transactions.length,\"Transaction does not exist\");\r\n        _;\r\n    }\r\n\r\n    modifier txNotApproved(uint _txId){\r\n        require(!approve[_txId][msg.sender],\"Transaction already approved\");\r\n        _;\r\n    }\r\n\r\n    modifier txNotExecuted(uint _txId){\r\n        require(!transactions[_txId].executed,\"Transaction already executed\");\r\n        _;\r\n    }\r\n    function getContractBalance()external view returns (uint){\r\n        return address(this).balance;\r\n    }\r\n    function submitTransaction(address payable _to,uint _value) public {    \r\n        transactions.push(transaction({\r\n            from: msg.sender,\r\n            to: _to,\r\n            value:_value,\r\n            executed: false\r\n        }));\r\n        }\r\n    function removeTransaction(uint _txId) onlySignatories txNotExecuted(_txId) external {\r\n        delete transactions[_txId];\r\n        for(uint i; i<signatories.length;i++){\r\n            approve[_txId][signatories[i]]=false;\r\n        }\r\n    }\r\n    function approveTransaction(uint _txId) external onlySignatories \r\n    txExists(_txId)\r\n    txNotApproved(_txId)\r\n    txNotExecuted(_txId) \r\n    {\r\n        approve[_txId][msg.sender]=true;\r\n        ExecuteTransaction(_txId);\r\n    }\r\n\r\n    function ExecuteTransaction(uint _txId) public txNotExecuted(_txId){\r\n        uint count;\r\n        for(uint i;i<signatories.length;i++){\r\n            if(IAccess(AccessContract).getIsSignatories(signatories[i]) && approve[_txId][signatories[i]]){\r\n                count++;\r\n                }\r\n            }\r\n        uint percentage= 100*count/signatories.length;\r\n        \r\n        if(percentage>=60){\r\n            transaction storage transact = transactions[_txId];\r\n            transact.to.transfer(transact.value*(10**18));\r\n            transact.executed=true;\r\n        }\r\n\r\n    }\r\n}",
  "sourcePath": "D:\\Hashstack\\contracts\\MultiSig.sol",
  "compiler": {
    "name": "solc",
    "version": "0.8.17+commit.8df45f5f.Emscripten.clang"
  },
  "schemaVersion": "3.4.11",
  "updatedAt": "2022-12-15T14:18:41.107Z",
  "networkType": "ethereum",
  "devdoc": {
    "kind": "dev",
    "methods": {},
    "version": 1
  },
  "userdoc": {
    "kind": "user",
    "methods": {},
    "version": 1
  }
}